{
  "address": "0x5FbDB2315678afecb367f032d93F642f64180aa3",
  "abi": [
    {
      "anonymous": false,
      "inputs": [
        {
          "indexed": false,
          "internalType": "uint256",
          "name": "time",
          "type": "uint256"
        }
      ],
      "name": "TimeLeft",
      "type": "event"
    },
    {
      "stateMutability": "payable",
      "type": "fallback"
    },
    {
      "inputs": [],
      "name": "deposit",
      "outputs": [],
      "stateMutability": "payable",
      "type": "function"
    },
    {
      "inputs": [
        {
          "internalType": "address",
          "name": "",
          "type": "address"
        }
      ],
      "name": "deposits",
      "outputs": [
        {
          "internalType": "uint256",
          "name": "",
          "type": "uint256"
        }
      ],
      "stateMutability": "view",
      "type": "function"
    },
    {
      "inputs": [],
      "name": "getDeposit",
      "outputs": [
        {
          "internalType": "uint256",
          "name": "",
          "type": "uint256"
        }
      ],
      "stateMutability": "view",
      "type": "function"
    },
    {
      "inputs": [],
      "name": "getTime",
      "outputs": [
        {
          "internalType": "uint256",
          "name": "",
          "type": "uint256"
        }
      ],
      "stateMutability": "nonpayable",
      "type": "function"
    },
    {
      "inputs": [
        {
          "internalType": "uint256",
          "name": "timeToAdd",
          "type": "uint256"
        }
      ],
      "name": "increaseTime",
      "outputs": [],
      "stateMutability": "nonpayable",
      "type": "function"
    },
    {
      "inputs": [
        {
          "internalType": "address",
          "name": "",
          "type": "address"
        }
      ],
      "name": "times",
      "outputs": [
        {
          "internalType": "uint256",
          "name": "",
          "type": "uint256"
        }
      ],
      "stateMutability": "view",
      "type": "function"
    },
    {
      "inputs": [],
      "name": "withdraw",
      "outputs": [],
      "stateMutability": "payable",
      "type": "function"
    },
    {
      "stateMutability": "payable",
      "type": "receive"
    }
  ],
  "transactionHash": "0x7b191d0caf80bfaeb2928f71fb13e30c21cb1d0eac5a4f9860a5e9f31b461782",
  "args": [],
  "numDeployments": 1,
  "solcInputHash": "0d01c3356ee5d95c3ca3d89bba6646ee",
  "bytecode": "0x608060405234801561001057600080fd5b50610a12806100206000396000f3fe6080604052600436106100745760003560e01c8063c399ec881161004e578063c399ec88146100db578063ce7992f914610106578063d0e30db014610143578063fc7e286d1461014d5761007b565b80633c9a2a1a1461007d5780633ccfd60b146100a6578063557ed1ba146100b05761007b565b3661007b57005b005b34801561008957600080fd5b506100a4600480360381019061009f9190610620565b61018a565b005b6100ae610226565b005b3480156100bc57600080fd5b506100c56103af565b6040516100d2919061065c565b60405180910390f35b3480156100e757600080fd5b506100f061043d565b6040516100fd919061065c565b60405180910390f35b34801561011257600080fd5b5061012d600480360381019061012891906106d5565b610496565b60405161013a919061065c565b60405180910390f35b61014b6104ae565b005b34801561015957600080fd5b50610174600480360381019061016f91906106d5565b6105cd565b604051610181919061065c565b60405180910390f35b600081116101cd576040517f08c379a00000000000000000000000000000000000000000000000000000000081526004016101c49061075f565b60405180910390fd5b80600160003373ffffffffffffffffffffffffffffffffffffffff1673ffffffffffffffffffffffffffffffffffffffff168152602001908152602001600020600082825461021c91906107ae565b9250508190555050565b60008060003373ffffffffffffffffffffffffffffffffffffffff1673ffffffffffffffffffffffffffffffffffffffff16815260200190815260200160002054116102a7576040517f08c379a000000000000000000000000000000000000000000000000000000000815260040161029e90610850565b60405180910390fd5b600160003373ffffffffffffffffffffffffffffffffffffffff1673ffffffffffffffffffffffffffffffffffffffff168152602001908152602001600020544211610328576040517f08c379a000000000000000000000000000000000000000000000000000000000815260040161031f906108bc565b60405180910390fd5b3373ffffffffffffffffffffffffffffffffffffffff166108fc6000803373ffffffffffffffffffffffffffffffffffffffff1673ffffffffffffffffffffffffffffffffffffffff168152602001908152602001600020549081150290604051600060405180830381858888f193505050501580156103ac573d6000803e3d6000fd5b50565b60008042600160003373ffffffffffffffffffffffffffffffffffffffff1673ffffffffffffffffffffffffffffffffffffffff168152602001908152602001600020546103fd91906108dc565b90507fb0714e7763a2f5cbe05b8578737654b76181ec5294d59ed39353a569752e936d8160405161042e919061065c565b60405180910390a18091505090565b6000670de0b6b3a76400006000803373ffffffffffffffffffffffffffffffffffffffff1673ffffffffffffffffffffffffffffffffffffffff16815260200190815260200160002054610491919061093f565b905090565b60016020528060005260406000206000915090505481565b600034116104f1576040517f08c379a00000000000000000000000000000000000000000000000000000000081526004016104e8906109bc565b60405180910390fd5b601e426104fe91906107ae565b600160003373ffffffffffffffffffffffffffffffffffffffff1673ffffffffffffffffffffffffffffffffffffffff16815260200190815260200160002081905550346000803373ffffffffffffffffffffffffffffffffffffffff1673ffffffffffffffffffffffffffffffffffffffff168152602001908152602001600020819055503073ffffffffffffffffffffffffffffffffffffffff166108fc349081150290604051600060405180830381858888f193505050501580156105ca573d6000803e3d6000fd5b50565b60006020528060005260406000206000915090505481565b600080fd5b6000819050919050565b6105fd816105ea565b811461060857600080fd5b50565b60008135905061061a816105f4565b92915050565b600060208284031215610636576106356105e5565b5b60006106448482850161060b565b91505092915050565b610656816105ea565b82525050565b6000602082019050610671600083018461064d565b92915050565b600073ffffffffffffffffffffffffffffffffffffffff82169050919050565b60006106a282610677565b9050919050565b6106b281610697565b81146106bd57600080fd5b50565b6000813590506106cf816106a9565b92915050565b6000602082840312156106eb576106ea6105e5565b5b60006106f9848285016106c0565b91505092915050565b600082825260208201905092915050565b7f54696d6520746f20616464206d75737420626520706f7369746976652e000000600082015250565b6000610749601d83610702565b915061075482610713565b602082019050919050565b600060208201905081810360008301526107788161073c565b9050919050565b7f4e487b7100000000000000000000000000000000000000000000000000000000600052601160045260246000fd5b60006107b9826105ea565b91506107c4836105ea565b9250827fffffffffffffffffffffffffffffffffffffffffffffffffffffffffffffffff038211156107f9576107f861077f565b5b828201905092915050565b7f596f75206469646e2774206465706f73697420616e79204554482e0000000000600082015250565b600061083a601b83610702565b915061084582610804565b602082019050919050565b600060208201905081810360008301526108698161082d565b9050919050565b7f596f75207374696c6c206e65656420746f20776169742e000000000000000000600082015250565b60006108a6601783610702565b91506108b182610870565b602082019050919050565b600060208201905081810360008301526108d581610899565b9050919050565b60006108e7826105ea565b91506108f2836105ea565b9250828210156109055761090461077f565b5b828203905092915050565b7f4e487b7100000000000000000000000000000000000000000000000000000000600052601260045260246000fd5b600061094a826105ea565b9150610955836105ea565b92508261096557610964610910565b5b828204905092915050565b7f596f75206d757374206465706f736974204554482e0000000000000000000000600082015250565b60006109a6601583610702565b91506109b182610970565b602082019050919050565b600060208201905081810360008301526109d581610999565b905091905056fea26469706673582212200687b1a7e72f8a36337f270802f7c3d27a2fb72b27ad7fb1ff7ed4e0dd0fdddb64736f6c63430008080033",
  "devdoc": {
    "kind": "dev",
    "methods": {},
    "version": 1
  },
  "userdoc": {
    "kind": "user",
    "methods": {},
    "version": 1
  },
  "storageLayout": {
    "storage": [
      {
        "astId": 5,
        "contract": "contracts/TimeVault.sol:TimeVault",
        "label": "deposits",
        "offset": 0,
        "slot": "0",
        "type": "t_mapping(t_address,t_uint256)"
      },
      {
        "astId": 9,
        "contract": "contracts/TimeVault.sol:TimeVault",
        "label": "times",
        "offset": 0,
        "slot": "1",
        "type": "t_mapping(t_address,t_uint256)"
      }
    ],
    "types": {
      "t_address": {
        "encoding": "inplace",
        "label": "address",
        "numberOfBytes": "20"
      },
      "t_mapping(t_address,t_uint256)": {
        "encoding": "mapping",
        "key": "t_address",
        "label": "mapping(address => uint256)",
        "numberOfBytes": "32",
        "value": "t_uint256"
      },
      "t_uint256": {
        "encoding": "inplace",
        "label": "uint256",
        "numberOfBytes": "32"
      }
    }
  }
}