{
  "address": "0x5FbDB2315678afecb367f032d93F642f64180aa3",
  "abi": [
    {
      "stateMutability": "payable",
      "type": "fallback"
    },
    {
      "inputs": [],
      "name": "deposit",
      "outputs": [],
      "stateMutability": "payable",
      "type": "function"
    },
    {
      "inputs": [
        {
          "internalType": "address",
          "name": "",
          "type": "address"
        }
      ],
      "name": "deposits",
      "outputs": [
        {
          "internalType": "uint256",
          "name": "",
          "type": "uint256"
        }
      ],
      "stateMutability": "view",
      "type": "function"
    },
    {
      "inputs": [],
      "name": "getDeposit",
      "outputs": [
        {
          "internalType": "uint256",
          "name": "",
          "type": "uint256"
        }
      ],
      "stateMutability": "view",
      "type": "function"
    },
    {
      "inputs": [],
      "name": "getTime",
      "outputs": [
        {
          "internalType": "uint256",
          "name": "",
          "type": "uint256"
        }
      ],
      "stateMutability": "view",
      "type": "function"
    },
    {
      "inputs": [
        {
          "internalType": "uint256",
          "name": "timeToAdd",
          "type": "uint256"
        }
      ],
      "name": "increaseTime",
      "outputs": [],
      "stateMutability": "nonpayable",
      "type": "function"
    },
    {
      "inputs": [
        {
          "internalType": "address",
          "name": "",
          "type": "address"
        }
      ],
      "name": "times",
      "outputs": [
        {
          "internalType": "uint256",
          "name": "",
          "type": "uint256"
        }
      ],
      "stateMutability": "view",
      "type": "function"
    },
    {
      "inputs": [],
      "name": "withdraw",
      "outputs": [],
      "stateMutability": "payable",
      "type": "function"
    },
    {
      "stateMutability": "payable",
      "type": "receive"
    }
  ],
  "transactionHash": "0xc94bfbfc394d20c55637fffc54e144d84a4f7a29c47394694a51db7a200c5ecc",
  "args": [],
  "numDeployments": 1,
  "solcInputHash": "7227df84e2adcac5c7e90e4cbdac3efe",
  "bytecode": "0x608060405234801561001057600080fd5b506109db806100206000396000f3fe6080604052600436106100745760003560e01c8063c399ec881161004e578063c399ec88146100db578063ce7992f914610106578063d0e30db014610143578063fc7e286d1461014d5761007b565b80633c9a2a1a1461007d5780633ccfd60b146100a6578063557ed1ba146100b05761007b565b3661007b57005b005b34801561008957600080fd5b506100a4600480360381019061009f91906105e9565b61018a565b005b6100ae610226565b005b3480156100bc57600080fd5b506100c56103af565b6040516100d29190610625565b60405180910390f35b3480156100e757600080fd5b506100f0610406565b6040516100fd9190610625565b60405180910390f35b34801561011257600080fd5b5061012d6004803603810190610128919061069e565b61045f565b60405161013a9190610625565b60405180910390f35b61014b610477565b005b34801561015957600080fd5b50610174600480360381019061016f919061069e565b610596565b6040516101819190610625565b60405180910390f35b600081116101cd576040517f08c379a00000000000000000000000000000000000000000000000000000000081526004016101c490610728565b60405180910390fd5b80600160003373ffffffffffffffffffffffffffffffffffffffff1673ffffffffffffffffffffffffffffffffffffffff168152602001908152602001600020600082825461021c9190610777565b9250508190555050565b60008060003373ffffffffffffffffffffffffffffffffffffffff1673ffffffffffffffffffffffffffffffffffffffff16815260200190815260200160002054116102a7576040517f08c379a000000000000000000000000000000000000000000000000000000000815260040161029e90610819565b60405180910390fd5b600160003373ffffffffffffffffffffffffffffffffffffffff1673ffffffffffffffffffffffffffffffffffffffff168152602001908152602001600020544211610328576040517f08c379a000000000000000000000000000000000000000000000000000000000815260040161031f90610885565b60405180910390fd5b3373ffffffffffffffffffffffffffffffffffffffff166108fc6000803373ffffffffffffffffffffffffffffffffffffffff1673ffffffffffffffffffffffffffffffffffffffff168152602001908152602001600020549081150290604051600060405180830381858888f193505050501580156103ac573d6000803e3d6000fd5b50565b60008042600160003373ffffffffffffffffffffffffffffffffffffffff1673ffffffffffffffffffffffffffffffffffffffff168152602001908152602001600020546103fd91906108a5565b90508091505090565b6000670de0b6b3a76400006000803373ffffffffffffffffffffffffffffffffffffffff1673ffffffffffffffffffffffffffffffffffffffff1681526020019081526020016000205461045a9190610908565b905090565b60016020528060005260406000206000915090505481565b600034116104ba576040517f08c379a00000000000000000000000000000000000000000000000000000000081526004016104b190610985565b60405180910390fd5b601e426104c79190610777565b600160003373ffffffffffffffffffffffffffffffffffffffff1673ffffffffffffffffffffffffffffffffffffffff16815260200190815260200160002081905550346000803373ffffffffffffffffffffffffffffffffffffffff1673ffffffffffffffffffffffffffffffffffffffff168152602001908152602001600020819055503073ffffffffffffffffffffffffffffffffffffffff166108fc349081150290604051600060405180830381858888f19350505050158015610593573d6000803e3d6000fd5b50565b60006020528060005260406000206000915090505481565b600080fd5b6000819050919050565b6105c6816105b3565b81146105d157600080fd5b50565b6000813590506105e3816105bd565b92915050565b6000602082840312156105ff576105fe6105ae565b5b600061060d848285016105d4565b91505092915050565b61061f816105b3565b82525050565b600060208201905061063a6000830184610616565b92915050565b600073ffffffffffffffffffffffffffffffffffffffff82169050919050565b600061066b82610640565b9050919050565b61067b81610660565b811461068657600080fd5b50565b60008135905061069881610672565b92915050565b6000602082840312156106b4576106b36105ae565b5b60006106c284828501610689565b91505092915050565b600082825260208201905092915050565b7f54696d6520746f20616464206d75737420626520706f7369746976652e000000600082015250565b6000610712601d836106cb565b915061071d826106dc565b602082019050919050565b6000602082019050818103600083015261074181610705565b9050919050565b7f4e487b7100000000000000000000000000000000000000000000000000000000600052601160045260246000fd5b6000610782826105b3565b915061078d836105b3565b9250827fffffffffffffffffffffffffffffffffffffffffffffffffffffffffffffffff038211156107c2576107c1610748565b5b828201905092915050565b7f596f75206469646e2774206465706f73697420616e79204554482e0000000000600082015250565b6000610803601b836106cb565b915061080e826107cd565b602082019050919050565b60006020820190508181036000830152610832816107f6565b9050919050565b7f596f75207374696c6c206e65656420746f20776169742e000000000000000000600082015250565b600061086f6017836106cb565b915061087a82610839565b602082019050919050565b6000602082019050818103600083015261089e81610862565b9050919050565b60006108b0826105b3565b91506108bb836105b3565b9250828210156108ce576108cd610748565b5b828203905092915050565b7f4e487b7100000000000000000000000000000000000000000000000000000000600052601260045260246000fd5b6000610913826105b3565b915061091e836105b3565b92508261092e5761092d6108d9565b5b828204905092915050565b7f596f75206d757374206465706f736974204554482e0000000000000000000000600082015250565b600061096f6015836106cb565b915061097a82610939565b602082019050919050565b6000602082019050818103600083015261099e81610962565b905091905056fea26469706673582212202d3ffe7472814e39c6349391964c34fdf6c31b82ec1d9a7e657ffc503f913bdf64736f6c63430008080033",
  "devdoc": {
    "kind": "dev",
    "methods": {},
    "version": 1
  },
  "userdoc": {
    "kind": "user",
    "methods": {},
    "version": 1
  },
  "storageLayout": {
    "storage": [
      {
        "astId": 5,
        "contract": "contracts/TimeVault.sol:TimeVault",
        "label": "deposits",
        "offset": 0,
        "slot": "0",
        "type": "t_mapping(t_address,t_uint256)"
      },
      {
        "astId": 9,
        "contract": "contracts/TimeVault.sol:TimeVault",
        "label": "times",
        "offset": 0,
        "slot": "1",
        "type": "t_mapping(t_address,t_uint256)"
      }
    ],
    "types": {
      "t_address": {
        "encoding": "inplace",
        "label": "address",
        "numberOfBytes": "20"
      },
      "t_mapping(t_address,t_uint256)": {
        "encoding": "mapping",
        "key": "t_address",
        "label": "mapping(address => uint256)",
        "numberOfBytes": "32",
        "value": "t_uint256"
      },
      "t_uint256": {
        "encoding": "inplace",
        "label": "uint256",
        "numberOfBytes": "32"
      }
    }
  }
}