{
  "address": "0x5FbDB2315678afecb367f032d93F642f64180aa3",
  "abi": [
    {
      "stateMutability": "payable",
      "type": "fallback"
    },
    {
      "inputs": [],
      "name": "deposit",
      "outputs": [],
      "stateMutability": "payable",
      "type": "function"
    },
    {
      "inputs": [
        {
          "internalType": "address",
          "name": "",
          "type": "address"
        }
      ],
      "name": "deposits",
      "outputs": [
        {
          "internalType": "uint256",
          "name": "",
          "type": "uint256"
        }
      ],
      "stateMutability": "view",
      "type": "function"
    },
    {
      "inputs": [],
      "name": "getDeposit",
      "outputs": [
        {
          "internalType": "uint256",
          "name": "",
          "type": "uint256"
        }
      ],
      "stateMutability": "view",
      "type": "function"
    },
    {
      "inputs": [
        {
          "internalType": "uint256",
          "name": "timeToAdd",
          "type": "uint256"
        }
      ],
      "name": "increaseTime",
      "outputs": [],
      "stateMutability": "nonpayable",
      "type": "function"
    },
    {
      "inputs": [
        {
          "internalType": "address",
          "name": "",
          "type": "address"
        }
      ],
      "name": "times",
      "outputs": [
        {
          "internalType": "uint256",
          "name": "",
          "type": "uint256"
        }
      ],
      "stateMutability": "view",
      "type": "function"
    },
    {
      "inputs": [],
      "name": "withdraw",
      "outputs": [],
      "stateMutability": "payable",
      "type": "function"
    },
    {
      "stateMutability": "payable",
      "type": "receive"
    }
  ],
  "transactionHash": "0x2ceee5ab8038d6461a7d85d4b5e9680fedbcc31bab99942bec58ea5431f16e5f",
  "args": [],
  "numDeployments": 1,
  "solcInputHash": "36f2cb2f28dead614033e99a3eeb2049",
  "bytecode": "0x608060405234801561001057600080fd5b5061085b806100206000396000f3fe6080604052600436106100595760003560e01c80633c9a2a1a146100625780633ccfd60b1461008b578063c399ec8814610095578063ce7992f9146100c0578063d0e30db0146100fd578063fc7e286d1461010757610060565b3661006057005b005b34801561006e57600080fd5b5061008960048036038101906100849190610509565b610144565b005b6100936101e0565b005b3480156100a157600080fd5b506100aa610369565b6040516100b79190610545565b60405180910390f35b3480156100cc57600080fd5b506100e760048036038101906100e291906105be565b6103c2565b6040516100f49190610545565b60405180910390f35b6101056103da565b005b34801561011357600080fd5b5061012e600480360381019061012991906105be565b6104b6565b60405161013b9190610545565b60405180910390f35b60008111610187576040517f08c379a000000000000000000000000000000000000000000000000000000000815260040161017e90610648565b60405180910390fd5b80600160003373ffffffffffffffffffffffffffffffffffffffff1673ffffffffffffffffffffffffffffffffffffffff16815260200190815260200160002060008282546101d69190610697565b9250508190555050565b60008060003373ffffffffffffffffffffffffffffffffffffffff1673ffffffffffffffffffffffffffffffffffffffff1681526020019081526020016000205411610261576040517f08c379a000000000000000000000000000000000000000000000000000000000815260040161025890610739565b60405180910390fd5b600160003373ffffffffffffffffffffffffffffffffffffffff1673ffffffffffffffffffffffffffffffffffffffff1681526020019081526020016000205442116102e2576040517f08c379a00000000000000000000000000000000000000000000000000000000081526004016102d9906107a5565b60405180910390fd5b3373ffffffffffffffffffffffffffffffffffffffff166108fc6000803373ffffffffffffffffffffffffffffffffffffffff1673ffffffffffffffffffffffffffffffffffffffff168152602001908152602001600020549081150290604051600060405180830381858888f19350505050158015610366573d6000803e3d6000fd5b50565b6000670de0b6b3a76400006000803373ffffffffffffffffffffffffffffffffffffffff1673ffffffffffffffffffffffffffffffffffffffff168152602001908152602001600020546103bd91906107f4565b905090565b60016020528060005260406000206000915090505481565b601e426103e79190610697565b600160003373ffffffffffffffffffffffffffffffffffffffff1673ffffffffffffffffffffffffffffffffffffffff16815260200190815260200160002081905550346000803373ffffffffffffffffffffffffffffffffffffffff1673ffffffffffffffffffffffffffffffffffffffff168152602001908152602001600020819055503073ffffffffffffffffffffffffffffffffffffffff166108fc349081150290604051600060405180830381858888f193505050501580156104b3573d6000803e3d6000fd5b50565b60006020528060005260406000206000915090505481565b600080fd5b6000819050919050565b6104e6816104d3565b81146104f157600080fd5b50565b600081359050610503816104dd565b92915050565b60006020828403121561051f5761051e6104ce565b5b600061052d848285016104f4565b91505092915050565b61053f816104d3565b82525050565b600060208201905061055a6000830184610536565b92915050565b600073ffffffffffffffffffffffffffffffffffffffff82169050919050565b600061058b82610560565b9050919050565b61059b81610580565b81146105a657600080fd5b50565b6000813590506105b881610592565b92915050565b6000602082840312156105d4576105d36104ce565b5b60006105e2848285016105a9565b91505092915050565b600082825260208201905092915050565b7f54696d6520746f20616464206d75737420626520706f7369746976652e000000600082015250565b6000610632601d836105eb565b915061063d826105fc565b602082019050919050565b6000602082019050818103600083015261066181610625565b9050919050565b7f4e487b7100000000000000000000000000000000000000000000000000000000600052601160045260246000fd5b60006106a2826104d3565b91506106ad836104d3565b9250827fffffffffffffffffffffffffffffffffffffffffffffffffffffffffffffffff038211156106e2576106e1610668565b5b828201905092915050565b7f596f75206469646e2774206465706f7369746520616e79204554482e00000000600082015250565b6000610723601c836105eb565b915061072e826106ed565b602082019050919050565b6000602082019050818103600083015261075281610716565b9050919050565b7f596f75207374696c6c206e65656420746f20776169742e000000000000000000600082015250565b600061078f6017836105eb565b915061079a82610759565b602082019050919050565b600060208201905081810360008301526107be81610782565b9050919050565b7f4e487b7100000000000000000000000000000000000000000000000000000000600052601260045260246000fd5b60006107ff826104d3565b915061080a836104d3565b92508261081a576108196107c5565b5b82820490509291505056fea264697066735822122036e9bd03cd53c2b78d92ef384acf661cf2865348eb0b406911333ae26bb440e764736f6c63430008080033",
  "devdoc": {
    "kind": "dev",
    "methods": {},
    "version": 1
  },
  "userdoc": {
    "kind": "user",
    "methods": {},
    "version": 1
  },
  "storageLayout": {
    "storage": [
      {
        "astId": 5,
        "contract": "contracts/TimeVault.sol:TimeVault",
        "label": "deposits",
        "offset": 0,
        "slot": "0",
        "type": "t_mapping(t_address,t_uint256)"
      },
      {
        "astId": 9,
        "contract": "contracts/TimeVault.sol:TimeVault",
        "label": "times",
        "offset": 0,
        "slot": "1",
        "type": "t_mapping(t_address,t_uint256)"
      }
    ],
    "types": {
      "t_address": {
        "encoding": "inplace",
        "label": "address",
        "numberOfBytes": "20"
      },
      "t_mapping(t_address,t_uint256)": {
        "encoding": "mapping",
        "key": "t_address",
        "label": "mapping(address => uint256)",
        "numberOfBytes": "32",
        "value": "t_uint256"
      },
      "t_uint256": {
        "encoding": "inplace",
        "label": "uint256",
        "numberOfBytes": "32"
      }
    }
  }
}