{
  "address": "0x5FbDB2315678afecb367f032d93F642f64180aa3",
  "abi": [
    {
      "stateMutability": "payable",
      "type": "fallback"
    },
    {
      "inputs": [],
      "name": "deposit",
      "outputs": [],
      "stateMutability": "payable",
      "type": "function"
    },
    {
      "inputs": [
        {
          "internalType": "address",
          "name": "",
          "type": "address"
        }
      ],
      "name": "deposits",
      "outputs": [
        {
          "internalType": "uint256",
          "name": "",
          "type": "uint256"
        }
      ],
      "stateMutability": "view",
      "type": "function"
    },
    {
      "inputs": [],
      "name": "getDeposit",
      "outputs": [
        {
          "internalType": "uint256",
          "name": "",
          "type": "uint256"
        }
      ],
      "stateMutability": "view",
      "type": "function"
    },
    {
      "inputs": [
        {
          "internalType": "uint256",
          "name": "timeToAdd",
          "type": "uint256"
        }
      ],
      "name": "increaseTime",
      "outputs": [],
      "stateMutability": "nonpayable",
      "type": "function"
    },
    {
      "inputs": [
        {
          "internalType": "address",
          "name": "",
          "type": "address"
        }
      ],
      "name": "times",
      "outputs": [
        {
          "internalType": "uint256",
          "name": "",
          "type": "uint256"
        }
      ],
      "stateMutability": "view",
      "type": "function"
    },
    {
      "inputs": [],
      "name": "withdraw",
      "outputs": [],
      "stateMutability": "payable",
      "type": "function"
    },
    {
      "stateMutability": "payable",
      "type": "receive"
    }
  ],
  "transactionHash": "0x924f63b3a1308bd7161ce684162f89e4ac114f2734386509aaea21fb4fd84bb3",
  "args": [],
  "numDeployments": 1,
  "solcInputHash": "42e03fa81b4472bd85f5e72fc93db571",
  "bytecode": "0x608060405234801561001057600080fd5b5061090a806100206000396000f3fe6080604052600436106100595760003560e01c80633c9a2a1a146100625780633ccfd60b1461008b578063c399ec8814610095578063ce7992f9146100c0578063d0e30db0146100fd578063fc7e286d1461010757610060565b3661006057005b005b34801561006e57600080fd5b506100896004803603810190610084919061054c565b610144565b005b6100936101e0565b005b3480156100a157600080fd5b506100aa610369565b6040516100b79190610588565b60405180910390f35b3480156100cc57600080fd5b506100e760048036038101906100e29190610601565b6103c2565b6040516100f49190610588565b60405180910390f35b6101056103da565b005b34801561011357600080fd5b5061012e60048036038101906101299190610601565b6104f9565b60405161013b9190610588565b60405180910390f35b60008111610187576040517f08c379a000000000000000000000000000000000000000000000000000000000815260040161017e9061068b565b60405180910390fd5b80600160003373ffffffffffffffffffffffffffffffffffffffff1673ffffffffffffffffffffffffffffffffffffffff16815260200190815260200160002060008282546101d691906106da565b9250508190555050565b60008060003373ffffffffffffffffffffffffffffffffffffffff1673ffffffffffffffffffffffffffffffffffffffff1681526020019081526020016000205411610261576040517f08c379a00000000000000000000000000000000000000000000000000000000081526004016102589061077c565b60405180910390fd5b600160003373ffffffffffffffffffffffffffffffffffffffff1673ffffffffffffffffffffffffffffffffffffffff1681526020019081526020016000205442116102e2576040517f08c379a00000000000000000000000000000000000000000000000000000000081526004016102d9906107e8565b60405180910390fd5b3373ffffffffffffffffffffffffffffffffffffffff166108fc6000803373ffffffffffffffffffffffffffffffffffffffff1673ffffffffffffffffffffffffffffffffffffffff168152602001908152602001600020549081150290604051600060405180830381858888f19350505050158015610366573d6000803e3d6000fd5b50565b6000670de0b6b3a76400006000803373ffffffffffffffffffffffffffffffffffffffff1673ffffffffffffffffffffffffffffffffffffffff168152602001908152602001600020546103bd9190610837565b905090565b60016020528060005260406000206000915090505481565b6000341161041d576040517f08c379a0000000000000000000000000000000000000000000000000000000008152600401610414906108b4565b60405180910390fd5b601e4261042a91906106da565b600160003373ffffffffffffffffffffffffffffffffffffffff1673ffffffffffffffffffffffffffffffffffffffff16815260200190815260200160002081905550346000803373ffffffffffffffffffffffffffffffffffffffff1673ffffffffffffffffffffffffffffffffffffffff168152602001908152602001600020819055503073ffffffffffffffffffffffffffffffffffffffff166108fc349081150290604051600060405180830381858888f193505050501580156104f6573d6000803e3d6000fd5b50565b60006020528060005260406000206000915090505481565b600080fd5b6000819050919050565b61052981610516565b811461053457600080fd5b50565b60008135905061054681610520565b92915050565b60006020828403121561056257610561610511565b5b600061057084828501610537565b91505092915050565b61058281610516565b82525050565b600060208201905061059d6000830184610579565b92915050565b600073ffffffffffffffffffffffffffffffffffffffff82169050919050565b60006105ce826105a3565b9050919050565b6105de816105c3565b81146105e957600080fd5b50565b6000813590506105fb816105d5565b92915050565b60006020828403121561061757610616610511565b5b6000610625848285016105ec565b91505092915050565b600082825260208201905092915050565b7f54696d6520746f20616464206d75737420626520706f7369746976652e000000600082015250565b6000610675601d8361062e565b91506106808261063f565b602082019050919050565b600060208201905081810360008301526106a481610668565b9050919050565b7f4e487b7100000000000000000000000000000000000000000000000000000000600052601160045260246000fd5b60006106e582610516565b91506106f083610516565b9250827fffffffffffffffffffffffffffffffffffffffffffffffffffffffffffffffff03821115610725576107246106ab565b5b828201905092915050565b7f596f75206469646e2774206465706f73697420616e79204554482e0000000000600082015250565b6000610766601b8361062e565b915061077182610730565b602082019050919050565b6000602082019050818103600083015261079581610759565b9050919050565b7f596f75207374696c6c206e65656420746f20776169742e000000000000000000600082015250565b60006107d260178361062e565b91506107dd8261079c565b602082019050919050565b60006020820190508181036000830152610801816107c5565b9050919050565b7f4e487b7100000000000000000000000000000000000000000000000000000000600052601260045260246000fd5b600061084282610516565b915061084d83610516565b92508261085d5761085c610808565b5b828204905092915050565b7f596f75206d757374206465706f736974204554482e0000000000000000000000600082015250565b600061089e60158361062e565b91506108a982610868565b602082019050919050565b600060208201905081810360008301526108cd81610891565b905091905056fea26469706673582212200f86024c7187212effd36b36a90fd7653c8dc3371d11eae0bbb74fe4e30aeb6b64736f6c63430008080033",
  "devdoc": {
    "kind": "dev",
    "methods": {},
    "version": 1
  },
  "userdoc": {
    "kind": "user",
    "methods": {},
    "version": 1
  },
  "storageLayout": {
    "storage": [
      {
        "astId": 5,
        "contract": "contracts/TimeVault.sol:TimeVault",
        "label": "deposits",
        "offset": 0,
        "slot": "0",
        "type": "t_mapping(t_address,t_uint256)"
      },
      {
        "astId": 9,
        "contract": "contracts/TimeVault.sol:TimeVault",
        "label": "times",
        "offset": 0,
        "slot": "1",
        "type": "t_mapping(t_address,t_uint256)"
      }
    ],
    "types": {
      "t_address": {
        "encoding": "inplace",
        "label": "address",
        "numberOfBytes": "20"
      },
      "t_mapping(t_address,t_uint256)": {
        "encoding": "mapping",
        "key": "t_address",
        "label": "mapping(address => uint256)",
        "numberOfBytes": "32",
        "value": "t_uint256"
      },
      "t_uint256": {
        "encoding": "inplace",
        "label": "uint256",
        "numberOfBytes": "32"
      }
    }
  }
}